:100000000C945D000C9485000C9485000C94850084
:100010000C9485000C9485000C9485000C9485004C
:100020000C9485000C9485000C9485000C9485003C
:100030000C9485000C9485000C9485000C9485002C
:100040000C946D040C9485000C941D020C946002B9
:100050000C9485000C9485000C9485000C9485000C
:100060000C9485000C94850000000007000201003C
:100070000003040600000000000000000102040864
:100080001020408001020408102001020408102002
:10009000040404040404040402020202020203032E
:1000A0000303030300000000250028002B000000CC
:1000B0000000240027002A00230311241FBECFEFD5
:1000C000D8E0DEBFCDBF11E0A0E0B1E0E8E3FAE0A8
:1000D00002C005900D92A031B107D9F721E0A0E14F
:1000E000B1E001C01D92A93CB207E1F710E0CDE5F7
:1000F000D0E004C02197FE010E941405CC35D10741
:10010000C9F70E9476010C941A050C94000061E076
:100110008BE00E940A0161E08CE00E940A011092CB
:10012000150110921401109213011092120140E86F
:1001300055E260E070E086E191E00E949B0286E17A
:1001400091E00C94CF0186E191E00E948301892B1C
:1001500071F186E191E00E94AF01909311018093CB
:1001600010014AE050E0BC0186E191E00E94560493
:1001700080911001909111018035910559F481E031
:1001800090E0909315018093140110921301109246
:1001900012010DC08235910551F410921501109293
:1001A000140181E090E0909313018093120160911B
:1001B00014018BE00E944601609112018CE00C94C6
:1001C0004601833081F028F4813099F08230A1F02B
:1001D00008958630A9F08730B9F08430D1F4809149
:1001E00080008F7D03C0809180008F778093800096
:1001F000089584B58F7702C084B58F7D84BD08953E
:100200008091B0008F7703C08091B0008F7D809384
:10021000B0000895CF93DF9390E0FC01E458FF4FC6
:100220002491FC01E057FF4F8491882361F190E015
:10023000880F991FFC01E255FF4FC591D491FC0135
:10024000EC55FF4FA591B491611109C09FB7F89487
:100250008881209582238883EC912E230BC0623005
:1002600061F49FB7F8943881822F80958323888327
:10027000EC912E2B2C939FBF06C08FB7F894E8818A
:100280002E2B28838FBFDF91CF9108951F93CF939B
:10029000DF93282F30E0F901E859FF4F8491F901ED
:1002A000E458FF4FD491F901E057FF4FC491CC239C
:1002B000C9F0162F81110E94E100EC2FF0E0EE0F43
:1002C000FF1FEC55FF4FA591B4918FB7F894111112
:1002D00005C09C91ED2FE095E92302C0EC91ED2B38
:1002E000EC938FBFDF91CF911F9108950E94B704C7
:1002F0000E948700C7E5D2E00E94A3002097E1F3A7
:100300000E945702F9CFFC0124853585F901E05C94
:10031000FF4F80819181329620813181821B930B26
:100320008F7399270895DC011C96ED91FC911D9720
:10033000DF01A05CBF4F2D913C91119712968D91DA
:100340009C9111972817390739F08D919C91E80FEE
:10035000F91F808190E008958FEF9FEF0895FC01D1
:10036000A485B585FD01E05CFF4F20813181329687
:10037000808191812817390779F080819181A80FB8
:10038000B91F8C91208131812F5F3F4F2F7333270D
:100390003183208390E008958FEF9FEF0895FC0153
:1003A00081A1882329F0A489B5898C9186FFFBCF90
:1003B00011A208950F931F93CF93DF93FC01A6859D
:1003C000B7858D01005C1F4FE801888199810196F6
:1003D0008F739927AD014E5B5F4FEA012881398108
:1003E00082179307D1F3E80128813981A20FB31F47
:1003F0006C93A685B785A05CBF4F11969C938E9396
:10040000A689B7892C9181E090E0078C02C0880F03
:10041000991F0A94E2F7822B8C9381E081A30488D0
:10042000F589E02D80818064808381E090E0DF9118
:10043000CF911F910F91089508951F920F920FB6BB
:100440000F9211242F934F935F938F939F93EF936A
:10045000FF938091C00082FD1CC02091C600809156
:10046000BC019091BD0101968F7399274091BE0107
:100470005091BF018417950771F0E091BC01F09194
:10048000BD01E458FE4F20839093BD018093BC01D1
:1004900002C08091C600FF91EF919F918F915F9173
:1004A0004F912F910F900FBE0F901F90189586E1DE
:1004B00091E00E948301892B11F00C941C02089595
:1004C0001F920F920FB60F9211242F933F938F9389
:1004D0009F93EF93FF932091780130917901809160
:1004E0007A0190917B012817390731F48091C1007E
:1004F0008F7D8093C10014C0E0917A01F0917B015F
:10050000E85CFE4F208180917A0190917B010196F9
:100510008F73992790937B0180937A012093C60073
:10052000FF91EF919F918F913F912F910F900FBE6F
:100530000F901F901895CF92DF92EF92FF920F933A
:100540001F93CF93DF93EC016A017B014115514E5C
:100550006105710509F1EC89FD8981E090E008A051
:1005600002C0880F991F0A94E2F7808360E079E067
:100570008DE390E0A70196010E94F20489019A019F
:1005800001501109210931093695279517950795CD
:10059000980101151041A8F0EC89FD89108260E8EE
:1005A00074E88EE190E0A70196010E94F204DA015E
:1005B000C9010197A109B109B695A79597958795A6
:1005C0009C01E889F9893083EA89FB89208319A293
:1005D000EE89FF89408181E090E09C010C8C02C093
:1005E000220F331F0A94E2F7242B2083EE89FF8920
:1005F00040819C010D8C02C0220F331F0A94E2F748
:10060000242B2083EE89FF8940819C010E8C02C03F
:10061000220F331F0A94E2F7242B2083EE89FF89EF
:1006200020810F8C02C0880F991F0A94E2F78095F1
:1006300082238083DF91CF911F910F91FF90EF90E4
:10064000DF90CF900895E6E1F1E01382128288EE08
:1006500093E0A0E0B0E084839583A683B78384E031
:1006600091E0918380838CE791E09587848788E38C
:1006700091E09787868785EC90E0918B808B84EC66
:1006800090E0938B828B80EC90E0958B848B81EC57
:1006900090E0978B868B82EC90E0918F808F86EC38
:1006A00090E0938F828F84E0848F83E0858F87E052
:1006B000868F85E0878F81E080A30895CF92DF92B7
:1006C000EF92FF920F931F93CF93DF936C01EB0197
:1006D0007B01E40EF51E00E010E0CE15DF0561F0B1
:1006E0006991D601ED91FC910190F081E02DC60158
:1006F0000995080F191FF1CFC801DF91CF911F9104
:100700000F91FF90EF90DF90CF90089561157105E4
:1007100079F0FB0101900020E9F73197AF01461B0A
:10072000570BDC01ED91FC910280F381E02D0994DF
:1007300080E090E00895DC01ED91FC910190F08162
:10074000E02D09940F931F93CF93DF93EC016DE09D
:100750000E949B038C016AE0CE010E949B03800FE4
:10076000911FDF91CF911F910F9108958F929F92CA
:10077000AF92BF92CF92DF92EF92FF920F931F93AF
:10078000CF93DF93CDB7DEB7A1970FB6F894DEBF56
:100790000FBECDBF6C01142FE52FCB01022F19A284
:1007A000223008F40AE07E0121E2E20EF11C802EE4
:1007B000912CA12CB12C612F7E2FA50194010E94B8
:1007C000F204029F1019112481E0E81AF1081A308E
:1007D00014F4105D01C0195CF7011083122FE32F90
:1007E000CA01232B242B252B31F7B701C6010E9408
:1007F0008603A1960FB6F894DEBF0FBECDBFDF9182
:10080000CF911F910F91FF90EF90DF90CF90BF900D
:10081000AF909F908F900895CF92DF92EF92FF92CA
:100820000F931F93CF93DF93EC016A017B01211596
:10083000310579F4E881F9810190F081E02D642F90
:10084000DF91CF911F910F91FF90EF90DF90CF90AC
:1008500009942A303105E9F477FF1AC06DE20E944D
:100860009B038C0144275527BA014C195D096E0979
:100870007F092AE0CE010E94B603800F911FDF910D
:10088000CF911F910F91FF90EF90DF90CF9008953F
:100890002AE0B701A601CE01DF91CF911F910F9100
:1008A000FF90EF90DF90CF900C94B6030F931F93BF
:1008B000CF93DF93EC019A01AB01770F660B770BB7
:1008C0000E940C048C01CE010E94A203800F911F94
:1008D000DF91CF911F910F9108951F920F920FB644
:1008E0000F9211242F933F938F939F93AF93BF93B6
:1008F0008091C1019091C201A091C301B091C40146
:100900003091C00123E0230F2D3720F40196A11D63
:10091000B11D05C026E8230F0296A11DB11D20932D
:10092000C0018093C1019093C201A093C301B09311
:10093000C4018091C5019091C601A091C701B091F9
:10094000C8010196A11DB11D8093C5019093C601F8
:10095000A093C701B093C801BF91AF919F918F91B0
:100960003F912F910F900FBE0F901F901895789484
:1009700084B5826084BD84B5816084BD85B58260A4
:1009800085BD85B5816085BDEEE6F0E08081816042
:100990008083E1E8F0E01082808182608083808142
:1009A00081608083E0E8F0E0808181608083E1EB1A
:1009B000F0E0808184608083E0EBF0E08081816002
:1009C0008083EAE7F0E080818460808380818260B8
:1009D00080838081816080838081806880831092A1
:1009E000C1000895A1E21A2EAA1BBB1BFD010DC078
:1009F000AA1FBB1FEE1FFF1FA217B307E407F507CF
:100A000020F0A21BB30BE40BF50B661F771F881FAA
:100A1000991F1A9469F760957095809590959B0140
:100A2000AC01BD01CF010895EE0FFF1F0590F491B9
:080A3000E02D0994F894FFCFBA
:100A380000000000DA015E038301AF019301CF01DA
:00000001FF
